{
  "contractName": "InteractionTips",
  "abi": [
    {
      "inputs": [
        {
          "internalType": "address",
          "name": "messageContract",
          "type": "address"
        },
        {
          "internalType": "address",
          "name": "profileFactory",
          "type": "address"
        }
      ],
      "stateMutability": "nonpayable",
      "type": "constructor"
    },
    {
      "anonymous": false,
      "inputs": [
        {
          "indexed": false,
          "internalType": "address",
          "name": "profileAddress",
          "type": "address"
        }
      ],
      "name": "TippedProfile",
      "type": "event"
    },
    {
      "inputs": [
        {
          "internalType": "uint256",
          "name": "index",
          "type": "uint256"
        }
      ],
      "name": "getTips",
      "outputs": [
        {
          "internalType": "uint256",
          "name": "total",
          "type": "uint256"
        },
        {
          "internalType": "uint256[]",
          "name": "tippers",
          "type": "uint256[]"
        },
        {
          "internalType": "uint256[]",
          "name": "tippersAmount",
          "type": "uint256[]"
        }
      ],
      "stateMutability": "view",
      "type": "function",
      "constant": true
    },
    {
      "inputs": [
        {
          "internalType": "uint256",
          "name": "index",
          "type": "uint256"
        }
      ],
      "name": "sendTip",
      "outputs": [],
      "stateMutability": "payable",
      "type": "function",
      "payable": true
    },
    {
      "inputs": [],
      "name": "withdrawFees",
      "outputs": [],
      "stateMutability": "nonpayable",
      "type": "function"
    }
  ],
  "bytecode": "0x60806040526064600355600a60045534801561001a57600080fd5b50604051610b11380380610b11833981810160405281019061003c919061011a565b336000806101000a81548173ffffffffffffffffffffffffffffffffffffffff021916908373ffffffffffffffffffffffffffffffffffffffff16021790555081600160006101000a81548173ffffffffffffffffffffffffffffffffffffffff021916908373ffffffffffffffffffffffffffffffffffffffff16021790555080600260006101000a81548173ffffffffffffffffffffffffffffffffffffffff021916908373ffffffffffffffffffffffffffffffffffffffff160217905550505061019f565b60008151905061011481610188565b92915050565b6000806040838503121561012d57600080fd5b600061013b85828601610105565b925050602061014c85828601610105565b9150509250929050565b600061016182610168565b9050919050565b600073ffffffffffffffffffffffffffffffffffffffff82169050919050565b61019181610156565b811461019c57600080fd5b50565b610963806101ae6000396000f3fe6080604052600436106100345760003560e01c80630e5e05de14610039578063476343ee14610055578063c88261d51461006c575b600080fd5b610053600480360381019061004e9190610529565b6100ab565b005b34801561006157600080fd5b5061006a6102f7565b005b34801561007857600080fd5b50610093600480360381019061008e9190610529565b6102f9565b6040516100a29392919061068b565b60405180910390f35b600034116100ee576040517f08c379a00000000000000000000000000000000000000000000000000000000081526004016100e590610650565b60405180910390fd5b6000600160009054906101000a900473ffffffffffffffffffffffffffffffffffffffff1690506000610140612710610132600354346103f290919063ffffffff16565b61040890919063ffffffff16565b9050600061016f60045461016160035461271061041e90919063ffffffff16565b61041e90919063ffffffff16565b9050600061019a61271061018c84346103f290919063ffffffff16565b61040890919063ffffffff16565b905060006005600087815260200190815260200160002090503481600001546101c3919061071a565b816000018190555061025d8573ffffffffffffffffffffffffffffffffffffffff1663025e7c27886040518263ffffffff1660e01b81526004016102079190610670565b60206040518083038186803b15801561021f57600080fd5b505afa158015610233573d6000803e3d6000fd5b505050506040513d601f19601f820116820180604052508101906102579190610500565b83610434565b6102ef8573ffffffffffffffffffffffffffffffffffffffff1663cd53d08e886040518263ffffffff1660e01b81526004016102999190610670565b60206040518083038186803b1580156102b157600080fd5b505afa1580156102c5573d6000803e3d6000fd5b505050506040513d601f19601f820116820180604052508101906102e99190610500565b85610434565b505050505050565b565b6000606080600560008581526020019081526020016000206000015460056000868152602001908152602001600020600101600560008781526020019081526020016000206002018180548060200260200160405190810160405280929190818152602001828054801561038c57602002820191906000526020600020905b815481526020019060010190808311610378575b50505050509150808054806020026020016040519081016040528092919081815260200182805480156103de57602002820191906000526020600020905b8154815260200190600101908083116103ca575b505050505090509250925092509193909250565b6000818361040091906107a1565b905092915050565b600081836104169190610770565b905092915050565b6000818361042c91906107fb565b905092915050565b60008290508073ffffffffffffffffffffffffffffffffffffffff166326bedd9f836040518263ffffffff1660e01b81526004016000604051808303818588803b15801561048157600080fd5b505af1158015610495573d6000803e3d6000fd5b50505050507f13007cfb685c2965bf674ce728ed5001adfd90d7ba7192a928124848a7e6fa52836040516104c99190610635565b60405180910390a1505050565b6000815190506104e5816108ff565b92915050565b6000813590506104fa81610916565b92915050565b60006020828403121561051257600080fd5b6000610520848285016104d6565b91505092915050565b60006020828403121561053b57600080fd5b6000610549848285016104eb565b91505092915050565b600061055e8383610617565b60208301905092915050565b6105738161086b565b82525050565b6000610584826106e0565b61058e81856106f8565b9350610599836106d0565b8060005b838110156105ca5781516105b18882610552565b97506105bc836106eb565b92505060018101905061059d565b5085935050505092915050565b60006105e4601383610709565b91507f4e6f7420656e6f756768207469702073656e74000000000000000000000000006000830152602082019050919050565b61062081610861565b82525050565b61062f81610861565b82525050565b600060208201905061064a600083018461056a565b92915050565b60006020820190508181036000830152610669816105d7565b9050919050565b60006020820190506106856000830184610626565b92915050565b60006060820190506106a06000830186610626565b81810360208301526106b28185610579565b905081810360408301526106c68184610579565b9050949350505050565b6000819050602082019050919050565b600081519050919050565b6000602082019050919050565b600082825260208201905092915050565b600082825260208201905092915050565b600061072582610861565b915061073083610861565b9250827fffffffffffffffffffffffffffffffffffffffffffffffffffffffffffffffff03821115610765576107646108a1565b5b828201905092915050565b600061077b82610861565b915061078683610861565b925082610796576107956108d0565b5b828204905092915050565b60006107ac82610861565b91506107b783610861565b9250817fffffffffffffffffffffffffffffffffffffffffffffffffffffffffffffffff04831182151516156107f0576107ef6108a1565b5b828202905092915050565b600061080682610861565b915061081183610861565b925082821015610824576108236108a1565b5b828203905092915050565b600061083a82610841565b9050919050565b600073ffffffffffffffffffffffffffffffffffffffff82169050919050565b6000819050919050565b60006108768261087d565b9050919050565b60006108888261088f565b9050919050565b600061089a82610841565b9050919050565b7f4e487b7100000000000000000000000000000000000000000000000000000000600052601160045260246000fd5b7f4e487b7100000000000000000000000000000000000000000000000000000000600052601260045260246000fd5b6109088161082f565b811461091357600080fd5b50565b61091f81610861565b811461092a57600080fd5b5056fea264697066735822122063bf6826760431d4ab797b1bbac06ecae5ec15ca325ea569042b04787a6dc74d64736f6c63430008000033",
  "immutableReferences": {},
  "source": "// contracts/Messages.sol\r\n// SPDX-License-Identifier: MIT\r\npragma solidity ^0.8.0;\r\n\r\nimport \"@openzeppelin/contracts/utils/math/SafeMath.sol\";\r\nimport \"./Profile.sol\";\r\nimport \"./Messages.sol\";\r\n\r\ncontract InteractionTips {\r\n\tusing SafeMath for uint256;\r\n\t\r\n\taddress private _owner;\r\n\taddress private _messagesContract;\r\n\taddress private _profileFactory;\r\n\t\r\n\tuint256 private _feeCreatorInHundredthPercents = 100; //1%\r\n\tuint256 private _feeTippingInHundredthPercents = 10; //0.1%\r\n\t//total 98.9 percent to owner, 1% to creator, 0.1% to tipping plugin and token holders\r\n\t\r\n\tmapping (uint256  => Tips) private _tips;\r\n\t\r\n\tevent TippedProfile(address profileAddress);\r\n\t\r\n\tstruct Tips {\r\n\t\tuint256 total;\r\n\t\tuint256[] tippers;\r\n\t\tuint256[] tippersAmount;\r\n\t}\r\n\r\n\tconstructor (address messageContract, address profileFactory ) {\r\n\t\t_owner = msg.sender;\r\n\t\t_messagesContract = messageContract;\r\n\t\t_profileFactory = profileFactory;\r\n\t}\r\n\t\r\n\r\n\tfunction getTips(uint256 index)\r\n\t\tpublic view\r\n\t\treturns ( uint256 total, uint256[] memory tippers, uint256[] memory tippersAmount )\r\n\t{\r\n\t\treturn ( _tips[index].total, _tips[index].tippers, _tips[index].tippersAmount );\r\n\t}\r\n\r\n\t\r\n\t/**\r\n\t * @dev Sends tip to message owner and creator, while keeping a fee\r\n\t */ \r\n\tfunction sendTip (uint256 index) \r\n\t\tpublic payable\r\n\t{\r\n\t\trequire ( msg.value > 0 , \"Not enough tip sent\");\r\n\t\t//check that message allows tips should be done at interface level as it's gas consuming to check array of plugins\r\n\t\tMessages msgs = Messages(_messagesContract);\r\n\r\n\t\tuint256 creatorTip = msg.value.mul(_feeCreatorInHundredthPercents).div(10000);\r\n\t\tuint256 ownerShare = uint256(10000).sub(_feeCreatorInHundredthPercents).sub(_feeTippingInHundredthPercents);\r\n\t\tuint256 ownerTip = msg.value.mul(ownerShare).div(10000);\r\n\r\n\t\t//accounting\r\n\t\tTips storage t = _tips[index];\r\n\t\tt.total = t.total + msg.value;\r\n\t\t//sending tips\r\n\t\tforwardTip( msgs.owners(index), ownerTip );\r\n\t\tforwardTip( msgs.creators(index), creatorTip );\r\n\t}\r\n\t\r\n\t\r\n\t/**\r\n\t * @dev sends the tip to the corresponding profile which will handle dividends\r\n\t */\r\n\tfunction forwardTip(address payable profileAddress, uint256 tipValue)\r\n\t\tprivate\r\n\t{\r\n\t\tProfile cp = Profile(profileAddress);\r\n\r\n\t\tcp.receivePaymentAndShareDividends{value: tipValue}();\r\n\r\n\t\temit TippedProfile(profileAddress);\r\n\t}\r\n\t\r\n\t\r\n\t\r\n\t/**\r\n\t * @dev Withdraws all the fees\r\n\t */ \r\n\tfunction withdrawFees () \r\n\t\texternal \r\n\t{\r\n\t\t//fees will be sent to a staking contract that locks base layer token and receives network dividends\r\n\t\t\r\n\t}\r\n}",
  "sourcePath": "C:/data/projects/the social cloutwork/proofOfConcept/contracts/contracts/InteractionTips.sol",
  "compiler": {
    "name": "solc",
    "version": "0.8.0+commit.c7dfd78e.Emscripten.clang"
  },
  "schemaVersion": "3.4.1",
  "updatedAt": "2021-07-29T02:58:33.801Z",
  "networkType": "ethereum",
  "devdoc": {
    "kind": "dev",
    "methods": {
      "sendTip(uint256)": {
        "details": "Sends tip to message owner and creator, while keeping a fee"
      },
      "withdrawFees()": {
        "details": "Withdraws all the fees"
      }
    },
    "version": 1
  },
  "userdoc": {
    "kind": "user",
    "methods": {},
    "version": 1
  }
}