{
  "contractName": "ProfileLists",
  "abi": [
    {
      "inputs": [],
      "stateMutability": "nonpayable",
      "type": "constructor"
    },
    {
      "anonymous": false,
      "inputs": [
        {
          "indexed": false,
          "internalType": "address",
          "name": "profileAddress",
          "type": "address"
        },
        {
          "indexed": false,
          "internalType": "uint256",
          "name": "listId",
          "type": "uint256"
        },
        {
          "indexed": false,
          "internalType": "address",
          "name": "follower",
          "type": "address"
        }
      ],
      "name": "AddedToList",
      "type": "event"
    },
    {
      "anonymous": false,
      "inputs": [
        {
          "indexed": false,
          "internalType": "string",
          "name": "name",
          "type": "string"
        },
        {
          "indexed": false,
          "internalType": "uint256",
          "name": "listId",
          "type": "uint256"
        }
      ],
      "name": "CreatedList",
      "type": "event"
    },
    {
      "anonymous": false,
      "inputs": [
        {
          "indexed": false,
          "internalType": "address",
          "name": "profileAddress",
          "type": "address"
        },
        {
          "indexed": false,
          "internalType": "uint256",
          "name": "listId",
          "type": "uint256"
        },
        {
          "indexed": false,
          "internalType": "address",
          "name": "follower",
          "type": "address"
        }
      ],
      "name": "RemovedFromList",
      "type": "event"
    },
    {
      "inputs": [
        {
          "internalType": "address",
          "name": "",
          "type": "address"
        }
      ],
      "name": "followers",
      "outputs": [
        {
          "internalType": "uint256",
          "name": "",
          "type": "uint256"
        }
      ],
      "stateMutability": "view",
      "type": "function",
      "constant": true
    },
    {
      "inputs": [
        {
          "internalType": "address",
          "name": "",
          "type": "address"
        }
      ],
      "name": "following",
      "outputs": [
        {
          "internalType": "uint256",
          "name": "",
          "type": "uint256"
        }
      ],
      "stateMutability": "view",
      "type": "function",
      "constant": true
    },
    {
      "inputs": [
        {
          "internalType": "uint256",
          "name": "",
          "type": "uint256"
        }
      ],
      "name": "listOwner",
      "outputs": [
        {
          "internalType": "address",
          "name": "",
          "type": "address"
        }
      ],
      "stateMutability": "view",
      "type": "function",
      "constant": true
    },
    {
      "inputs": [
        {
          "internalType": "uint256",
          "name": "",
          "type": "uint256"
        }
      ],
      "name": "profileLists",
      "outputs": [
        {
          "internalType": "string",
          "name": "name",
          "type": "string"
        }
      ],
      "stateMutability": "view",
      "type": "function",
      "constant": true
    },
    {
      "inputs": [
        {
          "internalType": "string",
          "name": "name",
          "type": "string"
        }
      ],
      "name": "createList",
      "outputs": [
        {
          "internalType": "uint256",
          "name": "",
          "type": "uint256"
        }
      ],
      "stateMutability": "nonpayable",
      "type": "function"
    },
    {
      "inputs": [
        {
          "internalType": "uint256",
          "name": "id",
          "type": "uint256"
        }
      ],
      "name": "getList",
      "outputs": [
        {
          "internalType": "string",
          "name": "name",
          "type": "string"
        },
        {
          "internalType": "address[]",
          "name": "profileAddresses",
          "type": "address[]"
        }
      ],
      "stateMutability": "view",
      "type": "function",
      "constant": true
    },
    {
      "inputs": [
        {
          "internalType": "address",
          "name": "profileAddress",
          "type": "address"
        },
        {
          "internalType": "uint256",
          "name": "listId",
          "type": "uint256"
        }
      ],
      "name": "addFollower",
      "outputs": [],
      "stateMutability": "nonpayable",
      "type": "function"
    },
    {
      "inputs": [
        {
          "internalType": "address",
          "name": "profileAddress",
          "type": "address"
        },
        {
          "internalType": "uint256",
          "name": "listId",
          "type": "uint256"
        }
      ],
      "name": "removeFollower",
      "outputs": [],
      "stateMutability": "nonpayable",
      "type": "function"
    }
  ],
  "bytecode": "0x60806040523480156200001157600080fd5b50336000806101000a81548173ffffffffffffffffffffffffffffffffffffffff021916908373ffffffffffffffffffffffffffffffffffffffff1602179055506040518060400160405280600a81526020017f4669727374204c6973740000000000000000000000000000000000000000000081525060046001816001815401808255809150500390600052602060002090600302016000019080519060200190620000c09291906200012a565b506005339080600181540180825580915050600190039060005260206000200160009091909190916101000a81548173ffffffffffffffffffffffffffffffffffffffff021916908373ffffffffffffffffffffffffffffffffffffffff1602179055506200023f565b8280546200013890620001da565b90600052602060002090601f0160209004810192826200015c5760008555620001a8565b82601f106200017757805160ff1916838001178555620001a8565b82800160010185558215620001a8579182015b82811115620001a75782518255916020019190600101906200018a565b5b509050620001b79190620001bb565b5090565b5b80821115620001d6576000816000905550600101620001bc565b5090565b60006002820490506001821680620001f357607f821691505b602082108114156200020a576200020962000210565b5b50919050565b7f4e487b7100000000000000000000000000000000000000000000000000000000600052602260045260246000fd5b6118bd806200024f6000396000f3fe608060405234801561001057600080fd5b50600436106100885760003560e01c806395d955e21161005b57806395d955e21461013a578063980393ab1461016a578063b8dcc68f14610186578063e77c2b47146101b657610088565b80631ab5b3831461008d5780632b717b01146100be57806374a5a41b146100ee5780637a23fff81461011e575b600080fd5b6100a760048036038101906100a29190611190565b6101e6565b6040516100b5929190611489565b60405180910390f35b6100d860048036038101906100d39190611190565b61039c565b6040516100e59190611467565b60405180910390f35b610108600480360381019061010391906110ea565b610452565b60405161011591906115b0565b60405180910390f35b61013860048036038101906101339190611113565b61046a565b005b610154600480360381019061014f91906110ea565b6109e7565b60405161016191906115b0565b60405180910390f35b610184600480360381019061017f9190611113565b6109ff565b005b6101a0600480360381019061019b919061114f565b610d5b565b6040516101ad91906115b0565b60405180910390f35b6101d060048036038101906101cb9190611190565b610e5b565b6040516101dd9190611415565b60405180910390f35b60608060048381548110610223577f4e487b7100000000000000000000000000000000000000000000000000000000600052603260045260246000fd5b90600052602060002090600302016000016004848154811061026e577f4e487b7100000000000000000000000000000000000000000000000000000000600052603260045260246000fd5b906000526020600020906003020160010181805461028b90611789565b80601f01602080910402602001604051908101604052809291908181526020018280546102b790611789565b80156103045780601f106102d957610100808354040283529160200191610304565b820191906000526020600020905b8154815290600101906020018083116102e757829003601f168201915b505050505091508080548060200260200160405190810160405280929190818152602001828054801561038c57602002820191906000526020600020905b8160009054906101000a900473ffffffffffffffffffffffffffffffffffffffff1673ffffffffffffffffffffffffffffffffffffffff1681526020019060010190808311610342575b5050505050905091509150915091565b600481815481106103ac57600080fd5b90600052602060002090600302016000915090508060000180546103cf90611789565b80601f01602080910402602001604051908101604052809291908181526020018280546103fb90611789565b80156104485780601f1061041d57610100808354040283529160200191610448565b820191906000526020600020905b81548152906001019060200180831161042b57829003601f168201915b5050505050905081565b60036020528060005260406000206000915090505481565b60048054905081106104b1576040517f08c379a00000000000000000000000000000000000000000000000000000000081526004016104a890611590565b60405180910390fd5b6000819050600082141561050257600360003373ffffffffffffffffffffffffffffffffffffffff1673ffffffffffffffffffffffffffffffffffffffff1681526020019081526020016000205490505b60008111610545576040517f08c379a000000000000000000000000000000000000000000000000000000000815260040161053c90611510565b60405180910390fd5b6005818154811061057f577f4e487b7100000000000000000000000000000000000000000000000000000000600052603260045260246000fd5b9060005260206000200160009054906101000a900473ffffffffffffffffffffffffffffffffffffffff1673ffffffffffffffffffffffffffffffffffffffff163373ffffffffffffffffffffffffffffffffffffffff1614610617576040517f08c379a000000000000000000000000000000000000000000000000000000000815260040161060e906114f0565b60405180910390fd5b600060048281548110610653577f4e487b7100000000000000000000000000000000000000000000000000000000600052603260045260246000fd5b9060005260206000209060030201905060008160020160008673ffffffffffffffffffffffffffffffffffffffff1673ffffffffffffffffffffffffffffffffffffffff168152602001908152602001600020549050600081118061074a57508473ffffffffffffffffffffffffffffffffffffffff1682600101600081548110610707577f4e487b7100000000000000000000000000000000000000000000000000000000600052603260045260246000fd5b9060005260206000200160009054906101000a900473ffffffffffffffffffffffffffffffffffffffff1673ffffffffffffffffffffffffffffffffffffffff16145b156109e05760008260020160008773ffffffffffffffffffffffffffffffffffffffff1673ffffffffffffffffffffffffffffffffffffffff16815260200190815260200160002081905550600182600101805490506107aa91906116d7565b81141561082557816001018054806107eb577f4e487b7100000000000000000000000000000000000000000000000000000000600052603160045260246000fd5b6001900381819060005260206000200160006101000a81549073ffffffffffffffffffffffffffffffffffffffff021916905590556109df565b6000826001016001846001018054905061083f91906116d7565b81548110610876577f4e487b7100000000000000000000000000000000000000000000000000000000600052603260045260246000fd5b9060005260206000200160009054906101000a900473ffffffffffffffffffffffffffffffffffffffff169050808360010183815481106108e0577f4e487b7100000000000000000000000000000000000000000000000000000000600052603260045260246000fd5b9060005260206000200160006101000a81548173ffffffffffffffffffffffffffffffffffffffff021916908373ffffffffffffffffffffffffffffffffffffffff16021790555082600101805480610962577f4e487b7100000000000000000000000000000000000000000000000000000000600052603160045260246000fd5b6001900381819060005260206000200160006101000a81549073ffffffffffffffffffffffffffffffffffffffff02191690559055818360020160008373ffffffffffffffffffffffffffffffffffffffff1673ffffffffffffffffffffffffffffffffffffffff16815260200190815260200160002081905550505b5b5050505050565b60026020528060005260406000206000915090505481565b6000610a0a82610e9a565b9050600060048281548110610a48577f4e487b7100000000000000000000000000000000000000000000000000000000600052603260045260246000fd5b9060005260206000209060030201905060008160020160008673ffffffffffffffffffffffffffffffffffffffff1673ffffffffffffffffffffffffffffffffffffffff1681526020019081526020016000205414610adc576040517f08c379a0000000000000000000000000000000000000000000000000000000008152600401610ad390611530565b60405180910390fd5b600081600101805490501115610bc3578373ffffffffffffffffffffffffffffffffffffffff1681600101600081548110610b40577f4e487b7100000000000000000000000000000000000000000000000000000000600052603260045260246000fd5b9060005260206000200160009054906101000a900473ffffffffffffffffffffffffffffffffffffffff1673ffffffffffffffffffffffffffffffffffffffff161415610bc2576040517f08c379a0000000000000000000000000000000000000000000000000000000008152600401610bb990611550565b60405180910390fd5b5b80600101849080600181540180825580915050600190039060005260206000200160009091909190916101000a81548173ffffffffffffffffffffffffffffffffffffffff021916908373ffffffffffffffffffffffffffffffffffffffff16021790555060018160010180549050610c3c91906116d7565b8160020160008673ffffffffffffffffffffffffffffffffffffffff1673ffffffffffffffffffffffffffffffffffffffff168152602001908152602001600020819055506000831415610d1a576001600260008673ffffffffffffffffffffffffffffffffffffffff1673ffffffffffffffffffffffffffffffffffffffff16815260200190815260200160002054610cd69190611681565b600260008673ffffffffffffffffffffffffffffffffffffffff1673ffffffffffffffffffffffffffffffffffffffff168152602001908152602001600020819055505b7f4be61da91ebe0f4902f0db9d54ad3724b5efd9b44a2c627bda9484f5c76166d2848333604051610d4d93929190611430565b60405180910390a150505050565b60008160046001816001815401808255809150500390600052602060002090600302016000019080519060200190610d94929190610fb5565b506005339080600181540180825580915050600190039060005260206000200160009091909190916101000a81548173ffffffffffffffffffffffffffffffffffffffff021916908373ffffffffffffffffffffffffffffffffffffffff1602179055507f654a51e56798bbe69bd42faab04359e467e0219ab40eeddda3b8388a0ee91f95826001600480549050610e2c91906116d7565b604051610e3a9291906114c0565b60405180910390a16001600480549050610e5491906116d7565b9050919050565b60058181548110610e6b57600080fd5b906000526020600020016000915054906101000a900473ffffffffffffffffffffffffffffffffffffffff1681565b60006004805490508210610ee3576040517f08c379a0000000000000000000000000000000000000000000000000000000008152600401610eda90611570565b60405180910390fd5b6000821115610ef457819050610fb0565b6000600360003373ffffffffffffffffffffffffffffffffffffffff1673ffffffffffffffffffffffffffffffffffffffff1681526020019081526020016000205490506000811115610f4a5780915050610fb0565b6000610f6460405180602001604052806000815250610d5b565b905080600360003373ffffffffffffffffffffffffffffffffffffffff1673ffffffffffffffffffffffffffffffffffffffff1681526020019081526020016000208190555080925050505b919050565b828054610fc190611789565b90600052602060002090601f016020900481019282610fe3576000855561102a565b82601f10610ffc57805160ff191683800117855561102a565b8280016001018555821561102a579182015b8281111561102957825182559160200191906001019061100e565b5b509050611037919061103b565b5090565b5b8082111561105457600081600090555060010161103c565b5090565b600061106b611066846115fc565b6115cb565b90508281526020810184848401111561108357600080fd5b61108e848285611747565b509392505050565b6000813590506110a581611859565b92915050565b600082601f8301126110bc57600080fd5b81356110cc848260208601611058565b91505092915050565b6000813590506110e481611870565b92915050565b6000602082840312156110fc57600080fd5b600061110a84828501611096565b91505092915050565b6000806040838503121561112657600080fd5b600061113485828601611096565b9250506020611145858286016110d5565b9150509250929050565b60006020828403121561116157600080fd5b600082013567ffffffffffffffff81111561117b57600080fd5b611187848285016110ab565b91505092915050565b6000602082840312156111a257600080fd5b60006111b0848285016110d5565b91505092915050565b60006111c583836111d1565b60208301905092915050565b6111da8161170b565b82525050565b6111e98161170b565b82525050565b60006111fa8261163c565b611204818561165f565b935061120f8361162c565b8060005b8381101561124057815161122788826111b9565b975061123283611652565b925050600181019050611213565b5085935050505092915050565b600061125882611647565b6112628185611670565b9350611272818560208601611756565b61127b81611848565b840191505092915050565b6000611293602083611670565b91507f556e617574686f72697a656420746f2072656d6f76652066726f6d206c6973746000830152602082019050919050565b60006112d3601683611670565b91507f4c69737420696420646f65736e27742065786973742e000000000000000000006000830152602082019050919050565b6000611313601183611670565b91507f416c726561647920666f6c6c6f77696e670000000000000000000000000000006000830152602082019050919050565b6000611353601283611670565b91507f416c726561647920666f6c6c6f77696e672e00000000000000000000000000006000830152602082019050919050565b6000611393601583611670565b91507f4f7574206f6620626f756e64206c6973742049442e00000000000000000000006000830152602082019050919050565b60006113d3602083611670565b91507f4c69737420696420646f65736e27742065786973742028746f6f20626967292e6000830152602082019050919050565b61140f8161173d565b82525050565b600060208201905061142a60008301846111e0565b92915050565b600060608201905061144560008301866111e0565b6114526020830185611406565b61145f60408301846111e0565b949350505050565b60006020820190508181036000830152611481818461124d565b905092915050565b600060408201905081810360008301526114a3818561124d565b905081810360208301526114b781846111ef565b90509392505050565b600060408201905081810360008301526114da818561124d565b90506114e96020830184611406565b9392505050565b6000602082019050818103600083015261150981611286565b9050919050565b60006020820190508181036000830152611529816112c6565b9050919050565b6000602082019050818103600083015261154981611306565b9050919050565b6000602082019050818103600083015261156981611346565b9050919050565b6000602082019050818103600083015261158981611386565b9050919050565b600060208201905081810360008301526115a9816113c6565b9050919050565b60006020820190506115c56000830184611406565b92915050565b6000604051905081810181811067ffffffffffffffff821117156115f2576115f1611819565b5b8060405250919050565b600067ffffffffffffffff82111561161757611616611819565b5b601f19601f8301169050602081019050919050565b6000819050602082019050919050565b600081519050919050565b600081519050919050565b6000602082019050919050565b600082825260208201905092915050565b600082825260208201905092915050565b600061168c8261173d565b91506116978361173d565b9250827fffffffffffffffffffffffffffffffffffffffffffffffffffffffffffffffff038211156116cc576116cb6117bb565b5b828201905092915050565b60006116e28261173d565b91506116ed8361173d565b925082821015611700576116ff6117bb565b5b828203905092915050565b60006117168261171d565b9050919050565b600073ffffffffffffffffffffffffffffffffffffffff82169050919050565b6000819050919050565b82818337600083830152505050565b60005b83811015611774578082015181840152602081019050611759565b83811115611783576000848401525b50505050565b600060028204905060018216806117a157607f821691505b602082108114156117b5576117b46117ea565b5b50919050565b7f4e487b7100000000000000000000000000000000000000000000000000000000600052601160045260246000fd5b7f4e487b7100000000000000000000000000000000000000000000000000000000600052602260045260246000fd5b7f4e487b7100000000000000000000000000000000000000000000000000000000600052604160045260246000fd5b6000601f19601f8301169050919050565b6118628161170b565b811461186d57600080fd5b50565b6118798161173d565b811461188457600080fd5b5056fea264697066735822122081fc04648000979c361bf25e7aba09ec81c5da8f983ee62247ebb7245921e13b64736f6c63430008000033",
  "immutableReferences": {},
  "source": "// contracts/ProfileLists.sol\r\n// SPDX-License-Identifier: MIT\r\npragma solidity ^0.8.0;\r\n\r\n\r\n/**\r\n * Lists allow a user to add a profile to some personal list\r\n */\r\ncontract ProfileLists {\r\n\tevent AddedToList(address profileAddress, uint256 listId, address follower);\r\n\tevent RemovedFromList(address profileAddress, uint256 listId, address follower);\r\n\tevent CreatedList(string name, uint256 listId);\r\n\t\r\n\taddress private _owner;\r\n\taddress private _profileFactory;\r\n\t\r\n\r\n\t\r\n\tmapping (address => uint256) public followers;\r\n\tmapping (address => uint256) public following;\r\n\t\r\n\tProfileList[] public profileLists;\r\n\taddress[] public listOwner;\r\n\t\r\n\t\r\n\t\r\n\tstruct ProfileList {\r\n\t\tstring name;\r\n\t\taddress[] profiles;\r\n\t\tmapping ( address => uint256 ) profileIndex;\r\n\t}\r\n\r\n\tconstructor ( ) {\r\n\t\t_owner = msg.sender;\r\n\t\t//push dummy first element\r\n\t\tprofileLists.push().name = \"First List\";\r\n\t\tlistOwner.push(msg.sender);\r\n\t}\r\n\t\r\n\t\r\n\t/**\r\n\t * @dev Create a new list\r\n\t */\r\n\tfunction createList (string memory name)\r\n\t\tpublic\r\n\t\treturns (uint256)\r\n\t{\r\n\t\tprofileLists.push().name = name;\r\n\t\tlistOwner.push(msg.sender);\r\n\t\t\r\n\t\temit CreatedList (name, profileLists.length - 1 );\r\n\t\t\r\n\t\treturn profileLists.length - 1;\r\n\t}\r\n\t\r\n\t\r\n\t/**\r\n\t * @dev Get list real id based on given Id, creating the list if necessary\r\n\t */\r\n\tfunction getListIndex(uint256 id)\r\n\t\tprivate\r\n\t\treturns (uint256 listId)\r\n\t{\r\n\t\trequire ( id < profileLists.length, \"Out of bound list ID.\");\r\n\t\tif ( id > 0 ) return id;\r\n\t\t\r\n\t\tuint256 folListIndex = following[msg.sender];\r\n\t\tif ( folListIndex > 0 ){\r\n\t\t\treturn folListIndex;\r\n\t\t}\r\n\t\telse {\r\n\t\t\t//create new personal following list\r\n\t\t\tuint256 myListIndex = createList(\"\");\r\n\t\t\tfollowing[msg.sender] = myListIndex;\r\n\t\t\treturn myListIndex;\r\n\t\t}\r\n\t}\r\n\t\r\n\t\r\n\t///Getter for the struct\r\n\tfunction getList ( uint256 id )\r\n\t\tpublic view\r\n\t\treturns (string memory name, address[] memory profileAddresses )\r\n\t{\r\n\t\treturn ( profileLists[id].name, profileLists[id].profiles );\r\n\t}\r\n\t\r\n\t\r\n\t\r\n\t\r\n\t/**\r\n\t * @dev Add follower to a list\r\n\t * @param profileAddress - address of profile followed \r\n\t * @param listId - list to which follower is added, adds to personal following list if 0\r\n\t */ \r\n\tfunction addFollower (address profileAddress, uint256 listId )\r\n\t\tpublic\r\n\t{\r\n\t\tuint256 listIndex = getListIndex(listId);\r\n\t\t\r\n\t\tProfileList storage pl = profileLists[listIndex];\r\n\r\n\t\trequire ( pl.profileIndex[profileAddress] == 0, \"Already following\");\r\n\t\t//edge case where address would be the first one and therefore index would be 0 despite being already in list\r\n\t\tif ( pl.profiles.length > 0 ) require ( pl.profiles[0] != profileAddress, \"Already following.\");\r\n\r\n\t\tpl.profiles.push(profileAddress);\r\n\t\tpl.profileIndex[profileAddress] = pl.profiles.length - 1;\r\n\t\t\r\n\t\t//keep follower count if personal list otherwise can cheat by adding user to many lists\r\n\t\tif ( listId == 0 ) followers[profileAddress] = followers[profileAddress] + 1;\r\n\t\t\r\n\t\temit AddedToList(profileAddress, listIndex, msg.sender);\r\n\t}\r\n\t\r\n\t\r\n\t\r\n\t/**\r\n\t * @dev Remove follower from a list\r\n\t * @param profileAddress - address of profile  \r\n\t * @param listId - list to which follower is removed, personal following list if 0\r\n\t */ \r\n\tfunction removeFollower ( address profileAddress, uint256 listId )\r\n\t\tpublic\r\n\t{\r\n\t\trequire ( listId < profileLists.length, \"List id doesn't exist (too big).\");\r\n\r\n\t\tuint256 listIndex = listId;\r\n\t\tif ( listId == 0 ) listIndex = following[msg.sender];\r\n\t\trequire ( listIndex > 0, \"List id doesn't exist.\" );\r\n\t\trequire ( msg.sender == listOwner[listIndex], \"Unauthorized to remove from list\");\r\n\t\t\r\n\t\tProfileList storage pl = profileLists[listIndex];\r\n\t\t\r\n\r\n\t\tuint256 followingIndex = pl.profileIndex[profileAddress];\r\n\t\tif ( followingIndex > 0 || pl.profiles[0] == profileAddress ){\r\n\t\t\tpl.profileIndex[profileAddress] = 0;\r\n\t\t\t\r\n\t\t\t//removing from array: if last element just pop(), otherwise put last element in place\r\n\t\t\tif ( followingIndex == pl.profiles.length - 1 ){\r\n\t\t\t\tpl.profiles.pop();\r\n\t\t\t}\r\n\t\t\telse {\r\n\t\t\t\taddress lastProfile = pl.profiles[ pl.profiles.length - 1 ];\r\n\t\t\t\tpl.profiles[followingIndex] = lastProfile;\r\n\t\t\t\tpl.profiles.pop();\r\n\t\t\t\tpl.profileIndex[lastProfile] = followingIndex;\r\n\t\t\t}\r\n\t\t}\r\n\t}\r\n\t\r\n\t\r\n\r\n}",
  "sourcePath": "C:/data/projects/the social cloutwork/proofOfConcept/contracts/contracts/ProfileLists.sol",
  "compiler": {
    "name": "solc",
    "version": "0.8.0+commit.c7dfd78e.Emscripten.clang"
  },
  "schemaVersion": "3.4.1",
  "updatedAt": "2021-07-29T05:06:56.515Z",
  "networkType": "ethereum",
  "devdoc": {
    "kind": "dev",
    "methods": {
      "addFollower(address,uint256)": {
        "details": "Add follower to a list",
        "params": {
          "listId": "- list to which follower is added, adds to personal following list if 0",
          "profileAddress": "- address of profile followed "
        }
      },
      "createList(string)": {
        "details": "Create a new list"
      },
      "removeFollower(address,uint256)": {
        "details": "Remove follower from a list",
        "params": {
          "listId": "- list to which follower is removed, personal following list if 0",
          "profileAddress": "- address of profile  "
        }
      }
    },
    "version": 1
  },
  "userdoc": {
    "kind": "user",
    "methods": {
      "getList(uint256)": {
        "notice": "Getter for the struct"
      }
    },
    "notice": "Lists allow a user to add a profile to some personal list",
    "version": 1
  }
}