{
  "contractName": "ProfileFactory",
  "abi": [
    {
      "anonymous": false,
      "inputs": [
        {
          "indexed": false,
          "internalType": "address payable",
          "name": "profileAddress",
          "type": "address"
        }
      ],
      "name": "ProfileCreated",
      "type": "event"
    },
    {
      "anonymous": false,
      "inputs": [
        {
          "indexed": false,
          "internalType": "string",
          "name": "oldName",
          "type": "string"
        },
        {
          "indexed": false,
          "internalType": "string",
          "name": "newName",
          "type": "string"
        }
      ],
      "name": "ProfileRenamed",
      "type": "event"
    },
    {
      "inputs": [
        {
          "internalType": "string",
          "name": "",
          "type": "string"
        }
      ],
      "name": "profiles",
      "outputs": [
        {
          "internalType": "address payable",
          "name": "",
          "type": "address"
        }
      ],
      "stateMutability": "view",
      "type": "function",
      "constant": true
    },
    {
      "inputs": [
        {
          "internalType": "string",
          "name": "name",
          "type": "string"
        }
      ],
      "name": "deployNewProfile",
      "outputs": [
        {
          "internalType": "address",
          "name": "profileAddress",
          "type": "address"
        }
      ],
      "stateMutability": "nonpayable",
      "type": "function"
    },
    {
      "inputs": [
        {
          "internalType": "string",
          "name": "name",
          "type": "string"
        }
      ],
      "name": "getProfile",
      "outputs": [
        {
          "internalType": "address payable",
          "name": "profileAddress",
          "type": "address"
        }
      ],
      "stateMutability": "view",
      "type": "function",
      "constant": true
    },
    {
      "inputs": [
        {
          "internalType": "string",
          "name": "oldName",
          "type": "string"
        },
        {
          "internalType": "string",
          "name": "newName",
          "type": "string"
        }
      ],
      "name": "changeProfileName",
      "outputs": [
        {
          "internalType": "string",
          "name": "name",
          "type": "string"
        }
      ],
      "stateMutability": "nonpayable",
      "type": "function"
    }
  ],
  "bytecode": "0x608060405234801561001057600080fd5b50613ab4806100206000396000f3fe60806040523480156200001157600080fd5b5060043610620000525760003560e01c80630de986931462000057578063bb006d36146200008d578063c3eadf9514620000c3578063cba521e214620000f9575b600080fd5b6200007560048036038101906200006f919062000648565b6200012f565b60405162000084919062000812565b60405180910390f35b620000ab6004803603810190620000a591906200068d565b62000178565b604051620000ba91906200082f565b60405180910390f35b620000e16004803603810190620000db919062000648565b62000422565b604051620000f09190620007f5565b60405180910390f35b62000117600480360381019062000111919062000648565b6200057f565b60405162000126919062000812565b60405180910390f35b60008082604051620001429190620007dc565b908152602001604051809103902060009054906101000a900473ffffffffffffffffffffffffffffffffffffffff169050919050565b6060600073ffffffffffffffffffffffffffffffffffffffff16600083604051620001a49190620007dc565b908152602001604051809103902060009054906101000a900473ffffffffffffffffffffffffffffffffffffffff1673ffffffffffffffffffffffffffffffffffffffff16146200022c576040517f08c379a00000000000000000000000000000000000000000000000000000000081526004016200022390620008d2565b60405180910390fd5b6000836040516200023e9190620007dc565b908152602001604051809103902060009054906101000a900473ffffffffffffffffffffffffffffffffffffffff166000836040516200027f9190620007dc565b908152602001604051809103902060006101000a81548173ffffffffffffffffffffffffffffffffffffffff021916908373ffffffffffffffffffffffffffffffffffffffff16021790555060008084604051620002de9190620007dc565b908152602001604051809103902060006101000a81548173ffffffffffffffffffffffffffffffffffffffff021916908373ffffffffffffffffffffffffffffffffffffffff160217905550600080836040516200033d9190620007dc565b908152602001604051809103902060009054906101000a900473ffffffffffffffffffffffffffffffffffffffff1690508073ffffffffffffffffffffffffffffffffffffffff166372c39161846040518263ffffffff1660e01b8152600401620003a991906200082f565b600060405180830381600087803b158015620003c457600080fd5b505af1158015620003d9573d6000803e3d6000fd5b505050507fed2bcba900191986e7ba1f75be6032018b3db0b3e854b63ed228f111178be6d684846040516200041092919062000897565b60405180910390a18291505092915050565b60008073ffffffffffffffffffffffffffffffffffffffff166000836040516200044d9190620007dc565b908152602001604051809103902060009054906101000a900473ffffffffffffffffffffffffffffffffffffffff1673ffffffffffffffffffffffffffffffffffffffff16146200049d57600080fd5b6000823330604051620004b090620005c8565b620004be9392919062000853565b604051809103906000f080158015620004db573d6000803e3d6000fd5b50905080600084604051620004f19190620007dc565b908152602001604051809103902060006101000a81548173ffffffffffffffffffffffffffffffffffffffff021916908373ffffffffffffffffffffffffffffffffffffffff1602179055507ff10ec97e920cde75887622583772c637595a40b1f7777c18e51ea36cd127475c816040516200056e919062000812565b60405180910390a180915050919050565b6000818051602081018201805184825260208301602085012081835280955050505050506000915054906101000a900473ffffffffffffffffffffffffffffffffffffffff1681565b61302f8062000a5083390190565b6000620005ed620005e78462000928565b620008f4565b9050828152602081018484840111156200060657600080fd5b62000613848285620009ca565b509392505050565b600082601f8301126200062d57600080fd5b81356200063f848260208601620005d6565b91505092915050565b6000602082840312156200065b57600080fd5b600082013567ffffffffffffffff8111156200067657600080fd5b62000684848285016200061b565b91505092915050565b60008060408385031215620006a157600080fd5b600083013567ffffffffffffffff811115620006bc57600080fd5b620006ca858286016200061b565b925050602083013567ffffffffffffffff811115620006e857600080fd5b620006f6858286016200061b565b9150509250929050565b6200070b8162000996565b82525050565b6200071c8162000982565b82525050565b60006200072f826200095b565b6200073b818562000966565b93506200074d818560208601620009d9565b620007588162000a3e565b840191505092915050565b600062000770826200095b565b6200077c818562000977565b93506200078e818560208601620009d9565b80840191505092915050565b6000620007a960128362000966565b91507f4e616d6520616c72656164792074616b656e00000000000000000000000000006000830152602082019050919050565b6000620007ea828462000763565b915081905092915050565b60006020820190506200080c600083018462000711565b92915050565b600060208201905062000829600083018462000700565b92915050565b600060208201905081810360008301526200084b818462000722565b905092915050565b600060608201905081810360008301526200086f818662000722565b905062000880602083018562000711565b6200088f604083018462000711565b949350505050565b60006040820190508181036000830152620008b3818562000722565b90508181036020830152620008c9818462000722565b90509392505050565b60006020820190508181036000830152620008ed816200079a565b9050919050565b6000604051905081810181811067ffffffffffffffff821117156200091e576200091d62000a0f565b5b8060405250919050565b600067ffffffffffffffff82111562000946576200094562000a0f565b5b601f19601f8301169050602081019050919050565b600081519050919050565b600082825260208201905092915050565b600081905092915050565b60006200098f82620009aa565b9050919050565b6000620009a382620009aa565b9050919050565b600073ffffffffffffffffffffffffffffffffffffffff82169050919050565b82818337600083830152505050565b60005b83811015620009f9578082015181840152602081019050620009dc565b8381111562000a09576000848401525b50505050565b7f4e487b7100000000000000000000000000000000000000000000000000000000600052604160045260246000fd5b6000601f19601f830116905091905056fe60806040526103e86008556103e86009556000600a553480156200002257600080fd5b506040516200302f3803806200302f83398181016040528101906200004891906200025b565b828381600390805190602001906200006292919062000122565b5080600490805190602001906200007b92919062000122565b50505080600b60006101000a81548173ffffffffffffffffffffffffffffffffffffffff021916908373ffffffffffffffffffffffffffffffffffffffff16021790555081600560006101000a81548173ffffffffffffffffffffffffffffffffffffffff021916908373ffffffffffffffffffffffffffffffffffffffff16021790555082600690805190602001906200011892919062000122565b5050505062000449565b82805462000130906200039b565b90600052602060002090601f016020900481019282620001545760008555620001a0565b82601f106200016f57805160ff1916838001178555620001a0565b82800160010185558215620001a0579182015b828111156200019f57825182559160200191906001019062000182565b5b509050620001af9190620001b3565b5090565b5b80821115620001ce576000816000905550600101620001b4565b5090565b6000620001e9620001e384620002fe565b620002ca565b9050828152602081018484840111156200020257600080fd5b6200020f84828562000365565b509392505050565b60008151905062000228816200042f565b92915050565b600082601f8301126200024057600080fd5b815162000252848260208601620001d2565b91505092915050565b6000806000606084860312156200027157600080fd5b600084015167ffffffffffffffff8111156200028c57600080fd5b6200029a868287016200022e565b9350506020620002ad8682870162000217565b9250506040620002c08682870162000217565b9150509250925092565b6000604051905081810181811067ffffffffffffffff82111715620002f457620002f362000400565b5b8060405250919050565b600067ffffffffffffffff8211156200031c576200031b62000400565b5b601f19601f8301169050602081019050919050565b60006200033e8262000345565b9050919050565b600073ffffffffffffffffffffffffffffffffffffffff82169050919050565b60005b838110156200038557808201518184015260208101905062000368565b8381111562000395576000848401525b50505050565b60006002820490506001821680620003b457607f821691505b60208210811415620003cb57620003ca620003d1565b5b50919050565b7f4e487b7100000000000000000000000000000000000000000000000000000000600052602260045260246000fd5b7f4e487b7100000000000000000000000000000000000000000000000000000000600052604160045260246000fd5b6200043a8162000331565b81146200044657600080fd5b50565b612bd680620004596000396000f3fe60806040526004361061014f5760003560e01c806370a08231116100b657806395d89b411161006f57806395d89b4114610463578063a457c2d71461048e578063a9059cbb146104cb578063d58b67bf14610508578063dd62ed3e14610533578063ecc1caef1461057057610156565b806370a08231146103605780637284e4161461039d57806372c39161146103c8578063835c19f3146103f15780638da5cb5b146103fb5780639104c81e1461042657610156565b806323b872dd1161010857806323b872dd1461025d57806326bedd9f1461029a578063313ce567146102a4578063331a6bf5146102cf57806339509351146102f857806361fac54d1461033557610156565b806306fdde0314610158578063084ae0b014610183578063095ea7b3146101ae57806318160ddd146101eb578063193e0c81146102165780631d1dc1f01461023f57610156565b3661015657005b005b34801561016457600080fd5b5061016d61059b565b60405161017a9190612612565b60405180910390f35b34801561018f57600080fd5b5061019861062d565b6040516101a591906127b4565b60405180910390f35b3480156101ba57600080fd5b506101d560048036038101906101d0919061206b565b610633565b6040516101e291906125f7565b60405180910390f35b3480156101f757600080fd5b50610200610651565b60405161020d91906127b4565b60405180910390f35b34801561022257600080fd5b5061023d600480360381019061023891906120a7565b61065b565b005b610247610705565b60405161025491906127b4565b60405180910390f35b34801561026957600080fd5b50610284600480360381019061027f919061201c565b6108ec565b60405161029191906125f7565b60405180910390f35b6102a26109ed565b005b3480156102b057600080fd5b506102b9610b11565b6040516102c6919061282f565b60405180910390f35b3480156102db57600080fd5b506102f660048036038101906102f19190611fb7565b610b1a565b005b34801561030457600080fd5b5061031f600480360381019061031a919061206b565b610bee565b60405161032c91906125f7565b60405180910390f35b34801561034157600080fd5b5061034a610c9a565b6040516103579190612612565b60405180910390f35b34801561036c57600080fd5b5061038760048036038101906103829190611fb7565b610d28565b60405161039491906127b4565b60405180910390f35b3480156103a957600080fd5b506103b2610d70565b6040516103bf9190612612565b60405180910390f35b3480156103d457600080fd5b506103ef60048036038101906103ea91906120a7565b610dfe565b005b6103f9610f00565b005b34801561040757600080fd5b50610410610fa5565b60405161041d91906125dc565b60405180910390f35b34801561043257600080fd5b5061044d600480360381019061044891906120e8565b610fcb565b60405161045a91906127b4565b60405180910390f35b34801561046f57600080fd5b50610478611191565b6040516104859190612612565b60405180910390f35b34801561049a57600080fd5b506104b560048036038101906104b0919061206b565b611223565b6040516104c291906125f7565b60405180910390f35b3480156104d757600080fd5b506104f260048036038101906104ed919061206b565b611317565b6040516104ff91906125f7565b60405180910390f35b34801561051457600080fd5b5061051d611335565b60405161052a91906127b4565b60405180910390f35b34801561053f57600080fd5b5061055a60048036038101906105559190611fe0565b61133b565b60405161056791906127b4565b60405180910390f35b34801561057c57600080fd5b506105856113c2565b60405161059291906127b4565b60405180910390f35b6060600380546105aa90612a73565b80601f01602080910402602001604051908101604052809291908181526020018280546105d690612a73565b80156106235780601f106105f857610100808354040283529160200191610623565b820191906000526020600020905b81548152906001019060200180831161060657829003601f168201915b5050505050905090565b60095481565b60006106476106406113c8565b84846113d0565b6001905092915050565b6000600254905090565b3373ffffffffffffffffffffffffffffffffffffffff16600560009054906101000a900473ffffffffffffffffffffffffffffffffffffffff1673ffffffffffffffffffffffffffffffffffffffff16146106eb576040517f08c379a00000000000000000000000000000000000000000000000000000000081526004016106e2906126b4565b60405180910390fd5b8060079080519060200190610701929190611e82565b5050565b60008034141561071857600090506108e9565b60006107436127106107356008543461159b90919063ffffffff16565b6115b190919063ffffffff16565b9050600061075a82346115c790919063ffffffff16565b9050600560009054906101000a900473ffffffffffffffffffffffffffffffffffffffff1673ffffffffffffffffffffffffffffffffffffffff166108fc839081150290604051600060405180830381858888f193505050501580156107c4573d6000803e3d6000fd5b5060006107cf610651565b9050600061080269021e19e0c9bab24000006107f485476115c790919063ffffffff16565b61159b90919063ffffffff16565b90506000610819838461159b90919063ffffffff16565b905060006064905060008211156108405761083d82846115b190919063ffffffff16565b90505b60006108718261086369021e19e0c9bab24000004761159b90919063ffffffff16565b6115b190919063ffffffff16565b9050600061087e826115dd565b9050600061089587836115c790919063ffffffff16565b90506108a133826118c0565b7f660af6bb4a190faff3423694a874b4c51006b391c1eb0b2b015e537b51792da68882336040516108d4939291906127f8565b60405180910390a18099505050505050505050505b90565b60006108f9848484611a14565b6000600160008673ffffffffffffffffffffffffffffffffffffffff1673ffffffffffffffffffffffffffffffffffffffff16815260200190815260200160002060006109446113c8565b73ffffffffffffffffffffffffffffffffffffffff1673ffffffffffffffffffffffffffffffffffffffff168152602001908152602001600020549050828110156109c4576040517f08c379a00000000000000000000000000000000000000000000000000000000081526004016109bb906126d4565b60405180910390fd5b6109e1856109d06113c8565b85846109dc91906129a8565b6113d0565b60019150509392505050565b60006109f7610651565b1415610a0a57610a05610f00565b610b0f565b6000610a35612710610a276009543461159b90919063ffffffff16565b6115b190919063ffffffff16565b90506000610a4c82346115c790919063ffffffff16565b9050610a6382600a54611c9390919063ffffffff16565b600a81905550600560009054906101000a900473ffffffffffffffffffffffffffffffffffffffff1673ffffffffffffffffffffffffffffffffffffffff166108fc829081150290604051600060405180830381858888f19350505050158015610ad1573d6000803e3d6000fd5b507f4c139b98990908cf13a9cfc318fda30631278a5550428d35a6d2975359d043bc346001604051610b049291906127cf565b60405180910390a150505b565b60006012905090565b3373ffffffffffffffffffffffffffffffffffffffff16600560009054906101000a900473ffffffffffffffffffffffffffffffffffffffff1673ffffffffffffffffffffffffffffffffffffffff1614610baa576040517f08c379a0000000000000000000000000000000000000000000000000000000008152600401610ba1906126b4565b60405180910390fd5b80600560006101000a81548173ffffffffffffffffffffffffffffffffffffffff021916908373ffffffffffffffffffffffffffffffffffffffff16021790555050565b6000610c90610bfb6113c8565b848460016000610c096113c8565b73ffffffffffffffffffffffffffffffffffffffff1673ffffffffffffffffffffffffffffffffffffffff16815260200190815260200160002060008873ffffffffffffffffffffffffffffffffffffffff1673ffffffffffffffffffffffffffffffffffffffff16815260200190815260200160002054610c8b91906128c7565b6113d0565b6001905092915050565b60068054610ca790612a73565b80601f0160208091040260200160405190810160405280929190818152602001828054610cd390612a73565b8015610d205780601f10610cf557610100808354040283529160200191610d20565b820191906000526020600020905b815481529060010190602001808311610d0357829003601f168201915b505050505081565b60008060008373ffffffffffffffffffffffffffffffffffffffff1673ffffffffffffffffffffffffffffffffffffffff168152602001908152602001600020549050919050565b60078054610d7d90612a73565b80601f0160208091040260200160405190810160405280929190818152602001828054610da990612a73565b8015610df65780601f10610dcb57610100808354040283529160200191610df6565b820191906000526020600020905b815481529060010190602001808311610dd957829003601f168201915b505050505081565b3373ffffffffffffffffffffffffffffffffffffffff16600560009054906101000a900473ffffffffffffffffffffffffffffffffffffffff1673ffffffffffffffffffffffffffffffffffffffff161480610ea757503373ffffffffffffffffffffffffffffffffffffffff16600b60009054906101000a900473ffffffffffffffffffffffffffffffffffffffff1673ffffffffffffffffffffffffffffffffffffffff16145b610ee6576040517f08c379a0000000000000000000000000000000000000000000000000000000008152600401610edd906126b4565b60405180910390fd5b8060069080519060200190610efc929190611e82565b5050565b600560009054906101000a900473ffffffffffffffffffffffffffffffffffffffff1673ffffffffffffffffffffffffffffffffffffffff166108fc349081150290604051600060405180830381858888f19350505050158015610f68573d6000803e3d6000fd5b507f4c139b98990908cf13a9cfc318fda30631278a5550428d35a6d2975359d043bc346000604051610f9b9291906127cf565b60405180910390a1565b600560009054906101000a900473ffffffffffffffffffffffffffffffffffffffff1681565b600080821415610fde576000905061118c565b6000610fe8610651565b90508281101561102d576040517f08c379a000000000000000000000000000000000000000000000000000000000815260040161102490612754565b60405180910390fd5b600061104c69021e19e0c9bab24000004761159b90919063ffffffff16565b90506000611063838461159b90919063ffffffff16565b9050600061107a82846115b190919063ffffffff16565b9050600061109187866115c790919063ffffffff16565b905060006110a8828361159b90919063ffffffff16565b905060006110bf828561159b90919063ffffffff16565b905060006110f269021e19e0c9bab24000006110e4848a6115c790919063ffffffff16565b6115b190919063ffffffff16565b90506110fe338b611ca9565b3373ffffffffffffffffffffffffffffffffffffffff166108fc829081150290604051600060405180830381858888f19350505050158015611144573d6000803e3d6000fd5b507f281c3c2f326d9c2858a965334361e66894efa0ad54cd3a2c1b1de5d7d75d12b5818b33604051611178939291906127f8565b60405180910390a180985050505050505050505b919050565b6060600480546111a090612a73565b80601f01602080910402602001604051908101604052809291908181526020018280546111cc90612a73565b80156112195780601f106111ee57610100808354040283529160200191611219565b820191906000526020600020905b8154815290600101906020018083116111fc57829003601f168201915b5050505050905090565b600080600160006112326113c8565b73ffffffffffffffffffffffffffffffffffffffff1673ffffffffffffffffffffffffffffffffffffffff16815260200190815260200160002060008573ffffffffffffffffffffffffffffffffffffffff1673ffffffffffffffffffffffffffffffffffffffff168152602001908152602001600020549050828110156112ef576040517f08c379a00000000000000000000000000000000000000000000000000000000081526004016112e690612774565b60405180910390fd5b61130c6112fa6113c8565b85858461130791906129a8565b6113d0565b600191505092915050565b600061132b6113246113c8565b8484611a14565b6001905092915050565b600a5481565b6000600160008473ffffffffffffffffffffffffffffffffffffffff1673ffffffffffffffffffffffffffffffffffffffff16815260200190815260200160002060008373ffffffffffffffffffffffffffffffffffffffff1673ffffffffffffffffffffffffffffffffffffffff16815260200190815260200160002054905092915050565b60085481565b600033905090565b600073ffffffffffffffffffffffffffffffffffffffff168373ffffffffffffffffffffffffffffffffffffffff161415611440576040517f08c379a000000000000000000000000000000000000000000000000000000000815260040161143790612734565b60405180910390fd5b600073ffffffffffffffffffffffffffffffffffffffff168273ffffffffffffffffffffffffffffffffffffffff1614156114b0576040517f08c379a00000000000000000000000000000000000000000000000000000000081526004016114a790612674565b60405180910390fd5b80600160008573ffffffffffffffffffffffffffffffffffffffff1673ffffffffffffffffffffffffffffffffffffffff16815260200190815260200160002060008473ffffffffffffffffffffffffffffffffffffffff1673ffffffffffffffffffffffffffffffffffffffff168152602001908152602001600020819055508173ffffffffffffffffffffffffffffffffffffffff168373ffffffffffffffffffffffffffffffffffffffff167f8c5be1e5ebec7d5bd14f71427d1e84f3dd0314c0f7b2291e5b200ac8c7c3b9258360405161158e91906127b4565b60405180910390a3505050565b600081836115a9919061294e565b905092915050565b600081836115bf919061291d565b905092915050565b600081836115d591906129a8565b905092915050565b6000808214156115f057600090506118bb565b600082905060019150700100000000000000000000000000000000811061162057608081901c9050604082901b91505b68010000000000000000811061163f57604081901c9050602082901b91505b640100000000811061165a57602081901c9050601082901b91505b62010000811061167357601081901c9050600882901b91505b610100811061168b57600881901c9050600482901b91505b601081106116a257600481901c9050600282901b91505b600881106116b257600182901b91505b60018284816116ea577f4e487b7100000000000000000000000000000000000000000000000000000000600052601260045260246000fd5b048301901c91506001828481611729577f4e487b7100000000000000000000000000000000000000000000000000000000600052601260045260246000fd5b048301901c91506001828481611768577f4e487b7100000000000000000000000000000000000000000000000000000000600052601260045260246000fd5b048301901c915060018284816117a7577f4e487b7100000000000000000000000000000000000000000000000000000000600052601260045260246000fd5b048301901c915060018284816117e6577f4e487b7100000000000000000000000000000000000000000000000000000000600052601260045260246000fd5b048301901c91506001828481611825577f4e487b7100000000000000000000000000000000000000000000000000000000600052601260045260246000fd5b048301901c91506001828481611864577f4e487b7100000000000000000000000000000000000000000000000000000000600052601260045260246000fd5b048301901c915060008284816118a3577f4e487b7100000000000000000000000000000000000000000000000000000000600052601260045260246000fd5b049050808310156118b457826118b6565b805b925050505b919050565b600073ffffffffffffffffffffffffffffffffffffffff168273ffffffffffffffffffffffffffffffffffffffff161415611930576040517f08c379a000000000000000000000000000000000000000000000000000000000815260040161192790612794565b60405180910390fd5b61193c60008383611e7d565b806002600082825461194e91906128c7565b92505081905550806000808473ffffffffffffffffffffffffffffffffffffffff1673ffffffffffffffffffffffffffffffffffffffff16815260200190815260200160002060008282546119a391906128c7565b925050819055508173ffffffffffffffffffffffffffffffffffffffff16600073ffffffffffffffffffffffffffffffffffffffff167fddf252ad1be2c89b69c2b068fc378daa952ba7f163c4a11628f55a4df523b3ef83604051611a0891906127b4565b60405180910390a35050565b600073ffffffffffffffffffffffffffffffffffffffff168373ffffffffffffffffffffffffffffffffffffffff161415611a84576040517f08c379a0000000000000000000000000000000000000000000000000000000008152600401611a7b90612714565b60405180910390fd5b600073ffffffffffffffffffffffffffffffffffffffff168273ffffffffffffffffffffffffffffffffffffffff161415611af4576040517f08c379a0000000000000000000000000000000000000000000000000000000008152600401611aeb90612634565b60405180910390fd5b611aff838383611e7d565b60008060008573ffffffffffffffffffffffffffffffffffffffff1673ffffffffffffffffffffffffffffffffffffffff16815260200190815260200160002054905081811015611b85576040517f08c379a0000000000000000000000000000000000000000000000000000000008152600401611b7c90612694565b60405180910390fd5b8181611b9191906129a8565b6000808673ffffffffffffffffffffffffffffffffffffffff1673ffffffffffffffffffffffffffffffffffffffff16815260200190815260200160002081905550816000808573ffffffffffffffffffffffffffffffffffffffff1673ffffffffffffffffffffffffffffffffffffffff1681526020019081526020016000206000828254611c2191906128c7565b925050819055508273ffffffffffffffffffffffffffffffffffffffff168473ffffffffffffffffffffffffffffffffffffffff167fddf252ad1be2c89b69c2b068fc378daa952ba7f163c4a11628f55a4df523b3ef84604051611c8591906127b4565b60405180910390a350505050565b60008183611ca191906128c7565b905092915050565b600073ffffffffffffffffffffffffffffffffffffffff168273ffffffffffffffffffffffffffffffffffffffff161415611d19576040517f08c379a0000000000000000000000000000000000000000000000000000000008152600401611d10906126f4565b60405180910390fd5b611d2582600083611e7d565b60008060008473ffffffffffffffffffffffffffffffffffffffff1673ffffffffffffffffffffffffffffffffffffffff16815260200190815260200160002054905081811015611dab576040517f08c379a0000000000000000000000000000000000000000000000000000000008152600401611da290612654565b60405180910390fd5b8181611db791906129a8565b6000808573ffffffffffffffffffffffffffffffffffffffff1673ffffffffffffffffffffffffffffffffffffffff168152602001908152602001600020819055508160026000828254611e0b91906129a8565b92505081905550600073ffffffffffffffffffffffffffffffffffffffff168373ffffffffffffffffffffffffffffffffffffffff167fddf252ad1be2c89b69c2b068fc378daa952ba7f163c4a11628f55a4df523b3ef84604051611e7091906127b4565b60405180910390a3505050565b505050565b828054611e8e90612a73565b90600052602060002090601f016020900481019282611eb05760008555611ef7565b82601f10611ec957805160ff1916838001178555611ef7565b82800160010185558215611ef7579182015b82811115611ef6578251825591602001919060010190611edb565b5b509050611f049190611f08565b5090565b5b80821115611f21576000816000905550600101611f09565b5090565b6000611f38611f338461287b565b61284a565b905082815260208101848484011115611f5057600080fd5b611f5b848285612a31565b509392505050565b600081359050611f7281612b72565b92915050565b600082601f830112611f8957600080fd5b8135611f99848260208601611f25565b91505092915050565b600081359050611fb181612b89565b92915050565b600060208284031215611fc957600080fd5b6000611fd784828501611f63565b91505092915050565b60008060408385031215611ff357600080fd5b600061200185828601611f63565b925050602061201285828601611f63565b9150509250929050565b60008060006060848603121561203157600080fd5b600061203f86828701611f63565b935050602061205086828701611f63565b925050604061206186828701611fa2565b9150509250925092565b6000806040838503121561207e57600080fd5b600061208c85828601611f63565b925050602061209d85828601611fa2565b9150509250929050565b6000602082840312156120b957600080fd5b600082013567ffffffffffffffff8111156120d357600080fd5b6120df84828501611f78565b91505092915050565b6000602082840312156120fa57600080fd5b600061210884828501611fa2565b91505092915050565b61211a816129dc565b82525050565b612129816129ee565b82525050565b600061213a826128ab565b61214481856128b6565b9350612154818560208601612a40565b61215d81612b61565b840191505092915050565b60006121756023836128b6565b91507f45524332303a207472616e7366657220746f20746865207a65726f206164647260008301527f65737300000000000000000000000000000000000000000000000000000000006020830152604082019050919050565b60006121db6022836128b6565b91507f45524332303a206275726e20616d6f756e7420657863656564732062616c616e60008301527f63650000000000000000000000000000000000000000000000000000000000006020830152604082019050919050565b60006122416022836128b6565b91507f45524332303a20617070726f766520746f20746865207a65726f20616464726560008301527f73730000000000000000000000000000000000000000000000000000000000006020830152604082019050919050565b60006122a76026836128b6565b91507f45524332303a207472616e7366657220616d6f756e742065786365656473206260008301527f616c616e636500000000000000000000000000000000000000000000000000006020830152604082019050919050565b600061230d6013836128b6565b91507f556e617574686f72697a656420616374696f6e000000000000000000000000006000830152602082019050919050565b600061234d6028836128b6565b91507f45524332303a207472616e7366657220616d6f756e742065786365656473206160008301527f6c6c6f77616e63650000000000000000000000000000000000000000000000006020830152604082019050919050565b60006123b36021836128b6565b91507f45524332303a206275726e2066726f6d20746865207a65726f2061646472657360008301527f73000000000000000000000000000000000000000000000000000000000000006020830152604082019050919050565b60006124196025836128b6565b91507f45524332303a207472616e736665722066726f6d20746865207a65726f20616460008301527f64726573730000000000000000000000000000000000000000000000000000006020830152604082019050919050565b600061247f6024836128b6565b91507f45524332303a20617070726f76652066726f6d20746865207a65726f2061646460008301527f72657373000000000000000000000000000000000000000000000000000000006020830152604082019050919050565b60006124e56020836128b6565b91507f50726f66696c6553746f636b3a20496e73756666696369656e742066756e64736000830152602082019050919050565b60006125256025836128b6565b91507f45524332303a2064656372656173656420616c6c6f77616e63652062656c6f7760008301527f207a65726f0000000000000000000000000000000000000000000000000000006020830152604082019050919050565b600061258b601f836128b6565b91507f45524332303a206d696e7420746f20746865207a65726f2061646472657373006000830152602082019050919050565b6125c781612a1a565b82525050565b6125d681612a24565b82525050565b60006020820190506125f16000830184612111565b92915050565b600060208201905061260c6000830184612120565b92915050565b6000602082019050818103600083015261262c818461212f565b905092915050565b6000602082019050818103600083015261264d81612168565b9050919050565b6000602082019050818103600083015261266d816121ce565b9050919050565b6000602082019050818103600083015261268d81612234565b9050919050565b600060208201905081810360008301526126ad8161229a565b9050919050565b600060208201905081810360008301526126cd81612300565b9050919050565b600060208201905081810360008301526126ed81612340565b9050919050565b6000602082019050818103600083015261270d816123a6565b9050919050565b6000602082019050818103600083015261272d8161240c565b9050919050565b6000602082019050818103600083015261274d81612472565b9050919050565b6000602082019050818103600083015261276d816124d8565b9050919050565b6000602082019050818103600083015261278d81612518565b9050919050565b600060208201905081810360008301526127ad8161257e565b9050919050565b60006020820190506127c960008301846125be565b92915050565b60006040820190506127e460008301856125be565b6127f16020830184612120565b9392505050565b600060608201905061280d60008301866125be565b61281a60208301856125be565b6128276040830184612111565b949350505050565b600060208201905061284460008301846125cd565b92915050565b6000604051905081810181811067ffffffffffffffff8211171561287157612870612b32565b5b8060405250919050565b600067ffffffffffffffff82111561289657612895612b32565b5b601f19601f8301169050602081019050919050565b600081519050919050565b600082825260208201905092915050565b60006128d282612a1a565b91506128dd83612a1a565b9250827fffffffffffffffffffffffffffffffffffffffffffffffffffffffffffffffff0382111561291257612911612aa5565b5b828201905092915050565b600061292882612a1a565b915061293383612a1a565b92508261294357612942612ad4565b5b828204905092915050565b600061295982612a1a565b915061296483612a1a565b9250817fffffffffffffffffffffffffffffffffffffffffffffffffffffffffffffffff048311821515161561299d5761299c612aa5565b5b828202905092915050565b60006129b382612a1a565b91506129be83612a1a565b9250828210156129d1576129d0612aa5565b5b828203905092915050565b60006129e7826129fa565b9050919050565b60008115159050919050565b600073ffffffffffffffffffffffffffffffffffffffff82169050919050565b6000819050919050565b600060ff82169050919050565b82818337600083830152505050565b60005b83811015612a5e578082015181840152602081019050612a43565b83811115612a6d576000848401525b50505050565b60006002820490506001821680612a8b57607f821691505b60208210811415612a9f57612a9e612b03565b5b50919050565b7f4e487b7100000000000000000000000000000000000000000000000000000000600052601160045260246000fd5b7f4e487b7100000000000000000000000000000000000000000000000000000000600052601260045260246000fd5b7f4e487b7100000000000000000000000000000000000000000000000000000000600052602260045260246000fd5b7f4e487b7100000000000000000000000000000000000000000000000000000000600052604160045260246000fd5b6000601f19601f8301169050919050565b612b7b816129dc565b8114612b8657600080fd5b50565b612b9281612a1a565b8114612b9d57600080fd5b5056fea264697066735822122087f193043b72479dfbbbce3da4f752b3fb8cd8c059d65c60848a27548593f3a964736f6c63430008000033a26469706673582212206ea15ae5254159e7faad7df522e625f3c6e7d85095257841566d7045ed1490f564736f6c63430008000033",
  "immutableReferences": {},
  "source": "// contracts/ProfileFactory.sol\r\n// SPDX-License-Identifier: MIT\r\npragma solidity ^0.8.0;\r\n\r\nimport \"./Profile.sol\";\r\n\r\ncontract ProfileFactory {\r\n    event ProfileCreated(address payable profileAddress);\r\n\t//Change name event\r\n\tevent ProfileRenamed(string oldName, string newName);\r\n\r\n\t//Registered profiles by name\r\n\tmapping (string => address payable) public profiles;\r\n\t\r\n\t\r\n\t\r\n    function deployNewProfile(string memory name) public returns (address profileAddress) {\r\n\t\trequire ( profiles[name] == payable(0) );\r\n\t\t\r\n        Profile cp = new Profile(name, msg.sender, address(this));\r\n\t\tprofiles[name] = payable(cp);\r\n        emit ProfileCreated(payable(cp));\r\n\t\treturn payable(cp);\r\n    }\r\n\t\r\n\tfunction getProfile( string memory name )\r\n\t\tpublic view\r\n\t\treturns (address payable profileAddress)\r\n\t{\r\n\t\treturn profiles[name];\r\n\t}\r\n\t\r\n\tfunction changeProfileName ( string memory oldName, string memory newName )\r\n\t\tpublic\r\n\t\treturns (string memory name)\r\n\t{\r\n\t\trequire ( profiles[newName] == address(0), \"Name already taken\" );\r\n\t\tprofiles[newName] = profiles[oldName];\r\n\t\tprofiles[oldName] = payable(0);\r\n\t\t\r\n\t\tProfile cp = Profile(profiles[newName]);\r\n\t\tcp.setProfileName(newName);\r\n\t\t\r\n\t\temit ProfileRenamed(oldName, newName);\r\n\t\t\r\n\t\treturn newName;\r\n\t}\r\n}",
  "sourcePath": "C:/data/projects/the social cloutwork/proofOfConcept/contracts/contracts/ProfileFactory.sol",
  "compiler": {
    "name": "solc",
    "version": "0.8.0+commit.c7dfd78e.Emscripten.clang"
  },
  "schemaVersion": "3.4.1",
  "updatedAt": "2021-07-29T02:58:33.795Z",
  "networkType": "ethereum",
  "devdoc": {
    "kind": "dev",
    "methods": {},
    "version": 1
  },
  "userdoc": {
    "kind": "user",
    "methods": {},
    "version": 1
  }
}